{
  "_format": "hh-sol-artifact-1",
  "contractName": "DragonToken",
  "sourceName": "contracts/DragonToken.sol",
  "abi": [
    {
      "inputs": [],
      "stateMutability": "nonpayable",
      "type": "constructor"
    },
    {
      "anonymous": false,
      "inputs": [
        {
          "indexed": true,
          "internalType": "address",
          "name": "owner",
          "type": "address"
        },
        {
          "indexed": true,
          "internalType": "address",
          "name": "spender",
          "type": "address"
        },
        {
          "indexed": false,
          "internalType": "uint256",
          "name": "value",
          "type": "uint256"
        }
      ],
      "name": "Approval",
      "type": "event"
    },
    {
      "anonymous": false,
      "inputs": [
        {
          "indexed": true,
          "internalType": "address",
          "name": "from",
          "type": "address"
        },
        {
          "indexed": true,
          "internalType": "address",
          "name": "to",
          "type": "address"
        },
        {
          "indexed": false,
          "internalType": "uint256",
          "name": "value",
          "type": "uint256"
        }
      ],
      "name": "Transfer",
      "type": "event"
    },
    {
      "inputs": [
        {
          "internalType": "address",
          "name": "owner",
          "type": "address"
        },
        {
          "internalType": "address",
          "name": "spender",
          "type": "address"
        }
      ],
      "name": "allowance",
      "outputs": [
        {
          "internalType": "uint256",
          "name": "",
          "type": "uint256"
        }
      ],
      "stateMutability": "view",
      "type": "function"
    },
    {
      "inputs": [
        {
          "internalType": "address",
          "name": "spender",
          "type": "address"
        },
        {
          "internalType": "uint256",
          "name": "amount",
          "type": "uint256"
        }
      ],
      "name": "approve",
      "outputs": [
        {
          "internalType": "bool",
          "name": "",
          "type": "bool"
        }
      ],
      "stateMutability": "nonpayable",
      "type": "function"
    },
    {
      "inputs": [
        {
          "internalType": "address",
          "name": "account",
          "type": "address"
        }
      ],
      "name": "balanceOf",
      "outputs": [
        {
          "internalType": "uint256",
          "name": "",
          "type": "uint256"
        }
      ],
      "stateMutability": "view",
      "type": "function"
    },
    {
      "inputs": [],
      "name": "decimals",
      "outputs": [
        {
          "internalType": "uint8",
          "name": "",
          "type": "uint8"
        }
      ],
      "stateMutability": "view",
      "type": "function"
    },
    {
      "inputs": [
        {
          "internalType": "address",
          "name": "spender",
          "type": "address"
        },
        {
          "internalType": "uint256",
          "name": "subtractedValue",
          "type": "uint256"
        }
      ],
      "name": "decreaseAllowance",
      "outputs": [
        {
          "internalType": "bool",
          "name": "",
          "type": "bool"
        }
      ],
      "stateMutability": "nonpayable",
      "type": "function"
    },
    {
      "inputs": [
        {
          "internalType": "address",
          "name": "spender",
          "type": "address"
        },
        {
          "internalType": "uint256",
          "name": "addedValue",
          "type": "uint256"
        }
      ],
      "name": "increaseAllowance",
      "outputs": [
        {
          "internalType": "bool",
          "name": "",
          "type": "bool"
        }
      ],
      "stateMutability": "nonpayable",
      "type": "function"
    },
    {
      "inputs": [
        {
          "internalType": "address",
          "name": "_to",
          "type": "address"
        }
      ],
      "name": "mind",
      "outputs": [],
      "stateMutability": "nonpayable",
      "type": "function"
    },
    {
      "inputs": [],
      "name": "name",
      "outputs": [
        {
          "internalType": "string",
          "name": "",
          "type": "string"
        }
      ],
      "stateMutability": "view",
      "type": "function"
    },
    {
      "inputs": [],
      "name": "symbol",
      "outputs": [
        {
          "internalType": "string",
          "name": "",
          "type": "string"
        }
      ],
      "stateMutability": "view",
      "type": "function"
    },
    {
      "inputs": [],
      "name": "totalMinted",
      "outputs": [
        {
          "internalType": "uint256",
          "name": "",
          "type": "uint256"
        }
      ],
      "stateMutability": "view",
      "type": "function"
    },
    {
      "inputs": [],
      "name": "totalSupply",
      "outputs": [
        {
          "internalType": "uint256",
          "name": "",
          "type": "uint256"
        }
      ],
      "stateMutability": "view",
      "type": "function"
    },
    {
      "inputs": [
        {
          "internalType": "address",
          "name": "to",
          "type": "address"
        },
        {
          "internalType": "uint256",
          "name": "amount",
          "type": "uint256"
        }
      ],
      "name": "transfer",
      "outputs": [
        {
          "internalType": "bool",
          "name": "",
          "type": "bool"
        }
      ],
      "stateMutability": "nonpayable",
      "type": "function"
    },
    {
      "inputs": [
        {
          "internalType": "address",
          "name": "from",
          "type": "address"
        },
        {
          "internalType": "address",
          "name": "to",
          "type": "address"
        },
        {
          "internalType": "uint256",
          "name": "amount",
          "type": "uint256"
        }
      ],
      "name": "transferFrom",
      "outputs": [
        {
          "internalType": "bool",
          "name": "",
          "type": "bool"
        }
      ],
      "stateMutability": "nonpayable",
      "type": "function"
    }
  ],
  "bytecode": "0x60806040523480156200001157600080fd5b506040518060400160405280600c81526020017f447261676f6e20546f6b656e00000000000000000000000000000000000000008152506040518060400160405280600381526020017f44544b000000000000000000000000000000000000000000000000000000000081525081600390805190602001906200009692919062000137565b508060049080519060200190620000af92919062000137565b505050620000c26200012e60201b60201c565b600a620000d0919062000242565b6305f5e100620000e191906200037f565b60068190555033600860006101000a81548173ffffffffffffffffffffffffffffffffffffffff021916908373ffffffffffffffffffffffffffffffffffffffff16021790555062000498565b60006012905090565b8280546200014590620003f7565b90600052602060002090601f016020900481019282620001695760008555620001b5565b82601f106200018457805160ff1916838001178555620001b5565b82800160010185558215620001b5579182015b82811115620001b457825182559160200191906001019062000197565b5b509050620001c49190620001c8565b5090565b5b80821115620001e3576000816000905550600101620001c9565b5090565b6000808291508390505b600185111562000239578086048111156200021157620002106200042d565b5b6001851615620002215780820291505b808102905062000231856200048b565b9450620001f1565b94509492505050565b60006200024f82620003e0565b91506200025c83620003ea565b92506200028b7fffffffffffffffffffffffffffffffffffffffffffffffffffffffffffffffff848462000293565b905092915050565b600082620002a5576001905062000378565b81620002b5576000905062000378565b8160018114620002ce5760028114620002d9576200030f565b600191505062000378565b60ff841115620002ee57620002ed6200042d565b5b8360020a9150848211156200030857620003076200042d565b5b5062000378565b5060208310610133831016604e8410600b8410161715620003495782820a9050838111156200034357620003426200042d565b5b62000378565b620003588484846001620001e7565b925090508184048111156200037257620003716200042d565b5b81810290505b9392505050565b60006200038c82620003e0565b91506200039983620003e0565b9250817fffffffffffffffffffffffffffffffffffffffffffffffffffffffffffffffff0483118215151615620003d557620003d46200042d565b5b828202905092915050565b6000819050919050565b600060ff82169050919050565b600060028204905060018216806200041057607f821691505b602082108114156200042757620004266200045c565b5b50919050565b7f4e487b7100000000000000000000000000000000000000000000000000000000600052601160045260246000fd5b7f4e487b7100000000000000000000000000000000000000000000000000000000600052602260045260246000fd5b60008160011c9050919050565b61186b80620004a86000396000f3fe608060405234801561001057600080fd5b50600436106100cf5760003560e01c806370a082311161008c578063a2309ff811610066578063a2309ff814610228578063a457c2d714610246578063a9059cbb14610276578063dd62ed3e146102a6576100cf565b806370a08231146101be5780637dc398fb146101ee57806395d89b411461020a576100cf565b806306fdde03146100d4578063095ea7b3146100f257806318160ddd1461012257806323b872dd14610140578063313ce56714610170578063395093511461018e575b600080fd5b6100dc6102d6565b6040516100e991906110a1565b60405180910390f35b61010c60048036038101906101079190610ea9565b610368565b6040516101199190611086565b60405180910390f35b61012a61038b565b60405161013791906111e3565b60405180910390f35b61015a60048036038101906101559190610e5a565b610395565b6040516101679190611086565b60405180910390f35b6101786103c4565b60405161018591906111fe565b60405180910390f35b6101a860048036038101906101a39190610ea9565b6103cd565b6040516101b59190611086565b60405180910390f35b6101d860048036038101906101d39190610df5565b610477565b6040516101e591906111e3565b60405180910390f35b61020860048036038101906102039190610df5565b6104c0565b005b610212610569565b60405161021f91906110a1565b60405180910390f35b6102306105fb565b60405161023d91906111e3565b60405180910390f35b610260600480360381019061025b9190610ea9565b610605565b60405161026d9190611086565b60405180910390f35b610290600480360381019061028b9190610ea9565b6106ef565b60405161029d9190611086565b60405180910390f35b6102c060048036038101906102bb9190610e1e565b610712565b6040516102cd91906111e3565b60405180910390f35b6060600380546102e5906114de565b80601f0160208091040260200160405190810160405280929190818152602001828054610311906114de565b801561035e5780601f106103335761010080835404028352916020019161035e565b820191906000526020600020905b81548152906001019060200180831161034157829003601f168201915b5050505050905090565b600080610373610799565b90506103808185856107a1565b600191505092915050565b6000600654905090565b6000806103a0610799565b90506103ad85828561096c565b6103b88585856109f8565b60019150509392505050565b60006012905090565b6000806103d8610799565b905061046c818585600160008673ffffffffffffffffffffffffffffffffffffffff1673ffffffffffffffffffffffffffffffffffffffff16815260200190815260200160002060008973ffffffffffffffffffffffffffffffffffffffff1673ffffffffffffffffffffffffffffffffffffffff168152602001908152602001600020546104679190611235565b6107a1565b600191505092915050565b6000600560008373ffffffffffffffffffffffffffffffffffffffff1673ffffffffffffffffffffffffffffffffffffffff168152602001908152602001600020549050919050565b60006007546104cd6103c4565b600a6104d991906112de565b6103e86104e691906113fc565b6104f09190611235565b90506104fa61038b565b811061053b576040517f08c379a0000000000000000000000000000000000000000000000000000000008152600401610532906110e3565b60405180910390fd5b610565826105476103c4565b600a61055391906112de565b6103e861056091906113fc565b610c79565b5050565b606060048054610578906114de565b80601f01602080910402602001604051908101604052809291908181526020018280546105a4906114de565b80156105f15780601f106105c6576101008083540402835291602001916105f1565b820191906000526020600020905b8154815290600101906020018083116105d457829003601f168201915b5050505050905090565b6000600754905090565b600080610610610799565b90506000600160008373ffffffffffffffffffffffffffffffffffffffff1673ffffffffffffffffffffffffffffffffffffffff16815260200190815260200160002060008673ffffffffffffffffffffffffffffffffffffffff1673ffffffffffffffffffffffffffffffffffffffff168152602001908152602001600020549050838110156106d6576040517f08c379a00000000000000000000000000000000000000000000000000000000081526004016106cd906111a3565b60405180910390fd5b6106e382868684036107a1565b60019250505092915050565b6000806106fa610799565b90506107078185856109f8565b600191505092915050565b6000600160008473ffffffffffffffffffffffffffffffffffffffff1673ffffffffffffffffffffffffffffffffffffffff16815260200190815260200160002060008373ffffffffffffffffffffffffffffffffffffffff1673ffffffffffffffffffffffffffffffffffffffff16815260200190815260200160002054905092915050565b600033905090565b600073ffffffffffffffffffffffffffffffffffffffff168373ffffffffffffffffffffffffffffffffffffffff161415610811576040517f08c379a000000000000000000000000000000000000000000000000000000000815260040161080890611183565b60405180910390fd5b600073ffffffffffffffffffffffffffffffffffffffff168273ffffffffffffffffffffffffffffffffffffffff161415610881576040517f08c379a000000000000000000000000000000000000000000000000000000000815260040161087890611103565b60405180910390fd5b80600160008573ffffffffffffffffffffffffffffffffffffffff1673ffffffffffffffffffffffffffffffffffffffff16815260200190815260200160002060008473ffffffffffffffffffffffffffffffffffffffff1673ffffffffffffffffffffffffffffffffffffffff168152602001908152602001600020819055508173ffffffffffffffffffffffffffffffffffffffff168373ffffffffffffffffffffffffffffffffffffffff167f8c5be1e5ebec7d5bd14f71427d1e84f3dd0314c0f7b2291e5b200ac8c7c3b9258360405161095f91906111e3565b60405180910390a3505050565b60006109788484610712565b90507fffffffffffffffffffffffffffffffffffffffffffffffffffffffffffffffff81146109f257818110156109e4576040517f08c379a00000000000000000000000000000000000000000000000000000000081526004016109db90611123565b60405180910390fd5b6109f184848484036107a1565b5b50505050565b600073ffffffffffffffffffffffffffffffffffffffff168373ffffffffffffffffffffffffffffffffffffffff161415610a68576040517f08c379a0000000000000000000000000000000000000000000000000000000008152600401610a5f90611163565b60405180910390fd5b600073ffffffffffffffffffffffffffffffffffffffff168273ffffffffffffffffffffffffffffffffffffffff161415610ad8576040517f08c379a0000000000000000000000000000000000000000000000000000000008152600401610acf906110c3565b60405180910390fd5b610ae3838383610dc1565b60008060008573ffffffffffffffffffffffffffffffffffffffff1673ffffffffffffffffffffffffffffffffffffffff16815260200190815260200160002054905081811015610b69576040517f08c379a0000000000000000000000000000000000000000000000000000000008152600401610b6090611143565b60405180910390fd5b8181036000808673ffffffffffffffffffffffffffffffffffffffff1673ffffffffffffffffffffffffffffffffffffffff16815260200190815260200160002081905550816000808573ffffffffffffffffffffffffffffffffffffffff1673ffffffffffffffffffffffffffffffffffffffff1681526020019081526020016000206000828254610bfc9190611235565b925050819055508273ffffffffffffffffffffffffffffffffffffffff168473ffffffffffffffffffffffffffffffffffffffff167fddf252ad1be2c89b69c2b068fc378daa952ba7f163c4a11628f55a4df523b3ef84604051610c6091906111e3565b60405180910390a3610c73848484610dc6565b50505050565b600073ffffffffffffffffffffffffffffffffffffffff168273ffffffffffffffffffffffffffffffffffffffff161415610ce9576040517f08c379a0000000000000000000000000000000000000000000000000000000008152600401610ce0906111c3565b60405180910390fd5b610cf560008383610dc1565b80600560008473ffffffffffffffffffffffffffffffffffffffff1673ffffffffffffffffffffffffffffffffffffffff1681526020019081526020016000206000828254610d449190611235565b925050819055508173ffffffffffffffffffffffffffffffffffffffff16600073ffffffffffffffffffffffffffffffffffffffff167fddf252ad1be2c89b69c2b068fc378daa952ba7f163c4a11628f55a4df523b3ef83604051610da991906111e3565b60405180910390a3610dbd60008383610dc6565b5050565b505050565b505050565b600081359050610dda81611807565b92915050565b600081359050610def8161181e565b92915050565b600060208284031215610e0757600080fd5b6000610e1584828501610dcb565b91505092915050565b60008060408385031215610e3157600080fd5b6000610e3f85828601610dcb565b9250506020610e5085828601610dcb565b9150509250929050565b600080600060608486031215610e6f57600080fd5b6000610e7d86828701610dcb565b9350506020610e8e86828701610dcb565b9250506040610e9f86828701610de0565b9150509250925092565b60008060408385031215610ebc57600080fd5b6000610eca85828601610dcb565b9250506020610edb85828601610de0565b9150509250929050565b610eee81611468565b82525050565b6000610eff82611219565b610f098185611224565b9350610f198185602086016114ab565b610f228161156e565b840191505092915050565b6000610f3a602383611224565b9150610f458261158c565b604082019050919050565b6000610f5d602583611224565b9150610f68826115db565b604082019050919050565b6000610f80602283611224565b9150610f8b8261162a565b604082019050919050565b6000610fa3601d83611224565b9150610fae82611679565b602082019050919050565b6000610fc6602683611224565b9150610fd1826116a2565b604082019050919050565b6000610fe9602583611224565b9150610ff4826116f1565b604082019050919050565b600061100c602483611224565b915061101782611740565b604082019050919050565b600061102f602583611224565b915061103a8261178f565b604082019050919050565b6000611052601f83611224565b915061105d826117de565b602082019050919050565b61107181611494565b82525050565b6110808161149e565b82525050565b600060208201905061109b6000830184610ee5565b92915050565b600060208201905081810360008301526110bb8184610ef4565b905092915050565b600060208201905081810360008301526110dc81610f2d565b9050919050565b600060208201905081810360008301526110fc81610f50565b9050919050565b6000602082019050818103600083015261111c81610f73565b9050919050565b6000602082019050818103600083015261113c81610f96565b9050919050565b6000602082019050818103600083015261115c81610fb9565b9050919050565b6000602082019050818103600083015261117c81610fdc565b9050919050565b6000602082019050818103600083015261119c81610fff565b9050919050565b600060208201905081810360008301526111bc81611022565b9050919050565b600060208201905081810360008301526111dc81611045565b9050919050565b60006020820190506111f86000830184611068565b92915050565b60006020820190506112136000830184611077565b92915050565b600081519050919050565b600082825260208201905092915050565b600061124082611494565b915061124b83611494565b9250827fffffffffffffffffffffffffffffffffffffffffffffffffffffffffffffffff038211156112805761127f611510565b5b828201905092915050565b6000808291508390505b60018511156112d5578086048111156112b1576112b0611510565b5b60018516156112c05780820291505b80810290506112ce8561157f565b9450611295565b94509492505050565b60006112e982611494565b91506112f48361149e565b92506113217fffffffffffffffffffffffffffffffffffffffffffffffffffffffffffffffff8484611329565b905092915050565b60008261133957600190506113f5565b8161134757600090506113f5565b816001811461135d576002811461136757611396565b60019150506113f5565b60ff84111561137957611378611510565b5b8360020a9150848211156113905761138f611510565b5b506113f5565b5060208310610133831016604e8410600b84101617156113cb5782820a9050838111156113c6576113c5611510565b5b6113f5565b6113d8848484600161128b565b925090508184048111156113ef576113ee611510565b5b81810290505b9392505050565b600061140782611494565b915061141283611494565b9250817fffffffffffffffffffffffffffffffffffffffffffffffffffffffffffffffff048311821515161561144b5761144a611510565b5b828202905092915050565b600061146182611474565b9050919050565b60008115159050919050565b600073ffffffffffffffffffffffffffffffffffffffff82169050919050565b6000819050919050565b600060ff82169050919050565b60005b838110156114c95780820151818401526020810190506114ae565b838111156114d8576000848401525b50505050565b600060028204905060018216806114f657607f821691505b6020821081141561150a5761150961153f565b5b50919050565b7f4e487b7100000000000000000000000000000000000000000000000000000000600052601160045260246000fd5b7f4e487b7100000000000000000000000000000000000000000000000000000000600052602260045260246000fd5b6000601f19601f8301169050919050565b60008160011c9050919050565b7f45524332303a207472616e7366657220746f20746865207a65726f206164647260008201527f6573730000000000000000000000000000000000000000000000000000000000602082015250565b7f796f752063616e6e6f74206d696e74206d6f7265207468616e20746f74616c7360008201527f7570706c79000000000000000000000000000000000000000000000000000000602082015250565b7f45524332303a20617070726f766520746f20746865207a65726f20616464726560008201527f7373000000000000000000000000000000000000000000000000000000000000602082015250565b7f45524332303a20696e73756666696369656e7420616c6c6f77616e6365000000600082015250565b7f45524332303a207472616e7366657220616d6f756e742065786365656473206260008201527f616c616e63650000000000000000000000000000000000000000000000000000602082015250565b7f45524332303a207472616e736665722066726f6d20746865207a65726f20616460008201527f6472657373000000000000000000000000000000000000000000000000000000602082015250565b7f45524332303a20617070726f76652066726f6d20746865207a65726f2061646460008201527f7265737300000000000000000000000000000000000000000000000000000000602082015250565b7f45524332303a2064656372656173656420616c6c6f77616e63652062656c6f7760008201527f207a65726f000000000000000000000000000000000000000000000000000000602082015250565b7f45524332303a206d696e7420746f20746865207a65726f206164647265737300600082015250565b61181081611456565b811461181b57600080fd5b50565b61182781611494565b811461183257600080fd5b5056fea2646970667358221220d72a92b185e8d311ff584e2fd1ccdfe349af4c17f462a832729f1751b7ebd23764736f6c63430008040033",
  "linkReferences": {},
  "deployedLinkReferences": {}
}